:1000000090EF0BF068961200046ED8CF05F0E0CFA9
:1000100006F00001E9CF0CF0EACF07F0E1CF08F0DD
:10002000E2CF09F0D9CF0AF0DACF0BF0F3CF12F01C
:10003000F4CF13F0FACF14F000C00EF001C00FF0AF
:1000400002C010F003C011F0A0AA2AEF00F0A1BA7C
:10005000EDEF07F00EC000F00FC001F010C002F08D
:1000600011C003F00CC0E9FF07C0EAFF078E08C00B
:10007000E1FF09C0E2FF0AC0D9FF0BC0DAFF12C0DE
:10008000F3FF13C0F4FF14C0FAFF045006C0E0FFF2
:1000900005C0D8FF1000F76AA60FF66E000EF72213
:1000A0000900F5501200040309040A0368006F00F8
:1000B0006C0061000C0361006D00690067006F0057
:1000C000F76AD00FF66E000EF7220900F550120005
:1000D000000302FFFFFFFFFFFFFFFFFFFFFFFFFF28
:1000E000F76AF00FF66E000EF7220900F5501200C5
:1000F00000FF02FFFFFFFFFFFFFFFFFFFFFFFFFF0C
:10010000F76A100FF66E010EF7220900F550120083
:1001100040000B0040000000000000000000000054
:1001200000000000000000000000000000000000CF
:10013000F76A400FF66E010EF7220900F550120023
:10014000400000004000000000000000000000002F
:10015000000000000000000000000000000000009F
:10016000F76A700FF66E010EF7220900F5501200C3
:10017000090243000201008032090400000102026A
:1001800001000524001001042402020524060001D8
:100190000524010001070581030B00FA0904010091
:1001A000020A000000070502024000010705820262
:1001B00040000100F76AC40FF66E010EF722090035
:1001C000F55012000200F76AD60FF66E010EF72204
:1001D0000900F550120012171B20FFFFFFFFF76AFE
:1001E000EE0FF66E010EF7220900F5501200120113
:1001F00010010200004005240B0000010102000173
:100200006D92699468A402D06894FCD7F9EF07F066
:10021000400E0401016F040E036F180E026F880E6A
:10022000006F046B040E076F580E066F000112007A
:1002300070A002D0EDDF7090689A00EF08F06A6A53
:10024000689205EF08F0BB91BABFBB81BA9FBA5163
:10025000100803E2000E016E20D0BBA110D0036A8B
:10026000BA51F2CFBCF0F29E2BDFBCBFF28EFF087A
:1002700002E1000E01D0010E016E0FD00ED0036A14
:10028000BA51F2CFBCF0F29E2BDFBCBFF28EFF085A
:1002900002E1000E01D0010E016E1200BF51C10338
:1002A000F3CF01F0F4CF00F0C203F3500026C051A9
:1002B000C103F3500020026E1200036AB951700F9F
:1002C000E96E0F0E0320EA6EEF6AB9C0BAF0BBDF29
:1002D000015222E0C06BB9C0BFF0C26B080EC16F03
:1002E000DDDF01C0E9FF040E0224EA6EEF6AC06B95
:1002F000B9C0BFF0C26B080EC16FD0DF02C0BBF047
:1003000001C0BAF0040EBA27000EBB23BAC0E9FF41
:10031000040EBB25EA6EEF6A1200010EB86FB851E9
:100320000F0805E3B8C0B9F0C8DFB82BF8D7120042
:10033000B26BB16B250EB06F800EAF6FEA6A2B0EF9
:10034000E96EE26AAF0EE16E020E016EE6CFEEFFDD
:10035000012EFCD72D6A2E6AAF6BEA6A2F0EE96E6A
:10036000E26AAF0EE16EE6CFEEFFAF6BEA6A300EE7
:10037000E96EE26AAF0EE16EE6CFEEFF080EAF6FF8
:10038000EA6A310EE96EE26AAF0EE16EE6CFEEFF89
:100390007D6B7C91336A326A7B6B1E907E6B1200A0
:1003A000286A276AAE6BAE5101080AE3036AAE51B0
:1003B000290FE96E000E0320EA6EEF6AAE2BF3D729
:1003C000B7DF1B6A010E1C6E1A6A12006A6A686A3D
:1003D0009F0E6B6E3D0E696E6E6A9FDFE1DF160E3B
:1003E000706E68A602D00EDEFCD76D9811DF030E8A
:1003F000226E0AEF08F0698468986D820FEF08F0AA
:10040000689C14EF08F0B3C023F0120023681200B8
:10041000B16B275028103CE0B1513F0839E31D5023
:1004200005E0020A0EE0010A17E020D026C003F022
:100430002550F2CFB3F0F29E93DEB3BFF28EB26FCF
:1004400015D026C003F02550F2CFB3F0F29E23DE84
:10045000B3BFF28EB26F0AD026C003F02550F2CFA0
:10046000B3F0F29EBCDEB3BFF28EB26F252AD8B4D1
:10047000262A2750D8B428062706B151B12B580F89
:10048000E96E040EEA6ED8B0EA2AB2C0EFFFC1D717
:100490002750281004E1B151400801E01A6AB1C0A8
:1004A000B3F0B1DF1200266A256A1D6A04011B51F0
:1004B000010A000107E0030A0BE0010A0DE0220A2D
:1004C00027E049D0286A120E276E030E1D6E45D014
:1004D000286A430E276E41D0020E1D6E036A040186
:1004E0001A51170FE96E000E0320EA6E266AEFCF4D
:1004F00025F026C003F02550F2CFB0F0F29E0001A7
:10050000CADDB0BFF28E036A276E03C028F025D083
:10051000036A04011A51F2CFB0F0F29E000153DEDB
:10052000B0BFF28E036A256E03C026F0253C02D0D0
:1005300026520FE026C003F02550F2CFB0F0F29E15
:100540000FDEB0BFF28E036A276E03C028F005D01D
:1005500002D05CDF11D05ADF0FD004011F5308E135
:10056000285203E127501E5D03E2286A1EC427F0CB
:10057000010E1A6E00014CDF02EF04F0B05304E1EB
:10058000040E226ECADEE9D0050E226E040EB36F91
:10059000980EB26F010EB16FB1510F08D8A0DDD027
:1005A000B1C0B9F08ADEB46B036AB151F2CFB8F0D2
:1005B000F29E96DDB8BFF28EFF0865E0040EB46FC0
:1005C000D890B135036AF2CFB8F0F29EB1DD0900E0
:1005D000F5CF03F0B8BFF28EB56F03C0B6F0C06BB5
:1005E000B1C0BFF0C26B080EC16F58DE01C0B8F0D9
:1005F000010E0124016E000E0220036E01C0E9FF0E
:10060000040E0324EA6EB5C0EFFFC06BB1C0BFF0AB
:10061000C26B080EC16F42DE01C0B8F0020E0124A9
:10062000016E000E0220036E01C0E9FF040E0324D8
:10063000EA6EB3C0ECFFED52B2C0EFFFD890B13517
:10064000036AF2CFB8F0F29E73DD0900F5CF03F034
:10065000B8BFF28EB2270350B323880EB76FB6A18E
:1006600001D0B781B6A301D0B783C06BB1C0BFF0D2
:10067000C26B080EC16F12DE01C0E9FF040E022436
:10068000EA6EB7C0EFFF036AB151F2CFB8F0F29E45
:1006900017DDB8BFF28EFF0845E0B483C06BB1C070
:1006A000BFF0C26B080EC16FF9DD02C0B9F001C026
:1006B000B8F0040EB827000EB923020EB825016E5B
:1006C000000EB921036E01C0E9FF040E0324EA6E97
:1006D000B3C0ECFFED52B2C0EFFFD890B135036A62
:1006E000F2CFB8F0F29E0CDD0900F5CF03F0B8BFF1
:1006F000F28EB2270350B323C06BB1C0BFF0C26B00
:10070000080EC16FCBDD02C0B9F001C0B8F0040E15
:10071000B827000EB923B8C0E9FF040EB925EA6E68
:10072000400EEF6EB451060802E10E0EB46F036A7C
:10073000B151F2CFB8F0F29EC3DCB8BFF28E01081F
:1007400001E0B489036AB151700FE96E0F0E032006
:10075000EA6EB4C0EFFFB12B1FD7FCEF03F004012A
:100760001951000A00010DE0010A14E0020A1FE01D
:10077000060A29E0030A2EE00E0A2EE0010A32E002
:1007800040D01CC058F40401596B020E0001B36F35
:100790003ADE38D004011A2D07D0010E1C160001D4
:1007A000B36B31DE03D00401000130DE2BD0040135
:1007B0001A2D06D01C820001B36B25DE03D0040184
:1007C000000124DE1FD0020E1A6E1AC424F0B36B8F
:1007D0001ADE18D068D616D01BC058F4010EB36FBD
:1007E00012DE10D004011A51010809E31AC41BF0EB
:1007F0001AC4B0F00001C2D6B36B05DE04010001DB
:1008000001D004DE77EF05F01BC0B0F004011951F0
:10081000000A000105E00A0A0BE0010A2BE03CD0C7
:100820000401586B596B020E0001B36FECDD35D03B
:10083000B0531EE0010EB05D036AF2CFB1F0F29E3C
:10084000B9DCB1BFF28E016E04011C5DD8A002D0EC
:1008500000010ED0036A1C51290FE96E000E03201F
:10086000EA6EEFCF58F4010E0001B36FCCDD01D07A
:10087000CDDD13D0B0530EE0036A04011C51290FE3
:10088000E96E000E0320EA6E1AC4EFFF0001B36B9D
:10089000BADD01D0BBDD01D0B9DD77EF05F0B19154
:1008A000B0BFB181B09FB1A117D0C06BB0C0BFF0D5
:1008B000C26B080EC16FF2DC02C0B3F001C0B2F02F
:1008C000040EB227000EB323B2C0E9FF040EB32515
:1008D000EA6E880EEF6E0DD0C06BB0C0BFF0C26B79
:1008E000080EC16FDBDC01C0E9FF040E0224EA6ED2
:1008F000EF6AEFEF04F0B191B0BFB181B09FB1A149
:1009000017D0C06BB0C0BFF0C26B080EC16FC6DCA1
:1009100002C0B3F001C0B2F0040EB227000EB32340
:10092000B2C0E9FF040EB325EA6E840EEF6E0ED05E
:10093000C06BB0C0BFF0C26B080EC16FAFDC01C0AE
:10094000E9FF040E0224EA6E840EEF6EF5EF04F068
:10095000B191B0BFB181B09FB1A117D0C06BB0C091
:10096000BFF0C26B080EC16F99DC02C0B4F001C0C9
:10097000B3F0040EB327000EB423B3C0E9FF040E96
:10098000B425EA6EEFCFB2F00ED0C06BB0C0BFF0AE
:10099000C26B080EC16F82DC01C0E9FF040E0224A5
:1009A000EA6EEFCFB2F0B2AF02D0B2B502D0000E15
:1009B00001D0010E016EFFEF04F01CC4BAF043DC5D
:1009C000015228E004011951010A000105E0020A60
:1009D00009E0030A0DE01DD01CC4B0F060D7B36B72
:1009E00012DD18D01CC4B0F086D7B36B0CDD12D06A
:1009F0000401586B596B1CC4B0F00001A9D7015217
:100A000004E0010E0401586F0001020EB36FFBDC1D
:100A100001D0FCDC77EF05F0FE0E236E120004011E
:100A20001C2D01D002D01C5348E11951000A0001CD
:100A30000BE0010A0DE0210A1CE0010A1FE0030A95
:100A40002EE0010A31E037D0010E7E6FE5DF34D0B1
:100A5000040EEA6E580EE96EE26A340EE16E080E7C
:100A6000016EE6CFEEFF012EFCD71EC4B3F0CBDC47
:100A700023D0020E7E6F7C81CFDF1ED0040EEA6E83
:100A8000580EE96EE26A2B0EE16E070E016EE6CF9C
:100A9000EEFF012EFCD7070EB36FB5DC0DD01AC4E4
:100AA0007DF0B36BB0DC08D01AC433F01BC432F055
:100AB000B36BA9DC01D0AADC0401000177EF05F0DB
:100AC0001A6A040118517F0B000A000107E0010AAD
:100AD00007E0030A07E0230A07E008D040D607D062
:100AE00093D605D06AD703D09AD701D08FDCA3EF75
:100AF00007F0C06BB1C0BFF0C26B080EC16F4EEC07
:100B000001F001C0E9FF040E0224EA6EEFCFB3F05A
:100B1000B251020806E1B3AD02D0B26B02D0010EB1
:100B2000B26FB25103081AE1840EB36FC06BB1C04B
:100B3000BFF0C26B080EC16F4EEC01F002C0B7F0FF
:100B400001C0B6F0040EB627000EB723B6C0E9FF09
:100B5000040EB725EA6E840EEF6E07D0B22D03D0D7
:100B6000C80EB36F02D0880EB36FD890B135036A48
:100B7000F2CFB6F0F29E98EC00F00900F5CF03F04A
:100B8000B6BFF28EB46F03C0B5F0C06BB1C0BFF09A
:100B9000C26B080EC16F4EEC01F001C0B6F0010E41
:100BA0000124016E000E0220036E01C0E9FF040E55
:100BB0000324EA6EB4C0EFFFB5A101D0B381B5A3A1
:100BC00001D0B383C06BB1C0BFF0C26B080EC16F60
:100BD0004EEC01F001C0E9FF040E0224EA6EB3C03E
:100BE000EFFF1200036ABE51700FE96E0F0E032073
:100BF000EA6EEF5219E0C06BBEC0BFF0C26B080EC8
:100C0000C16F4EEC01F002C0C0F001C0BFF0040E95
:100C1000BF27000EC023BFC0E9FF040EC025EA6E47
:100C2000EFCFC1F0C1AF02D0000E01D0010E016EB6
:100C30001200B9C0BEF0D6DF0152D8B47DD0C06B6F
:100C4000B9C0BFF0C26B080EC16F4EEC01F002C01C
:100C5000BFF001C0BEF0040EBE27000EBF23010E80
:100C6000BE25016E000EBF21036E01C0E9FF040E18
:100C70000324EA6EBAC0EFFFBC5102081EE1C06B4C
:100C8000B9C0BFF0C26B080EC16F4EEC01F002C0DC
:100C9000BFF001C0BEF0040EBE27000EBF23BEC0D1
:100CA000E9FF040EBF25EA6EEFCFBDF0BDAD02D067
:100CB000BC6B02D0010EBC6F18D0BC51040815E10A
:100CC000C06BB9C0BFF0C26B080EC16F4EEC01F033
:100CD00001C0E9FF040E0224EA6EEFCFBDF0BDAD06
:100CE00003D0010EBC6F01D0BC6BBC2D03D0C80E6D
:100CF000BD6F02D0880EBD6FBBA101D0BD81BBA36B
:100D000001D0BD83C06BB9C0BFF0C26B080EC16F0C
:100D10004EEC01F002C0BFF001C0BEF0040EBE27D1
:100D2000000EBF23BEC0E9FF040EBF25EA6EBDC0A2
:100D3000EFFF010E016E02D0000E016E12007E5117
:100D4000010A03E0030A13E024D0EA6A340EE96ED4
:100D5000040EE26E180EE16E080E016EE6CFEEFF95
:100D6000012EFCD7B36B03EC02F07E6B13D0EA6A62
:100D70002B0EE96E040EE26E180EE16E070E016E88
:100D8000E6CFEEFF012EFCD77E6BB36B03EC02F0D7
:100D900001D07E6B00EF07F0C06BB1C0BFF0C26B3B
:100DA000080EC16F4EEC01F002C0B3F001C0B2F00A
:100DB000010E0124016E000E0220036E01C0E9FF46
:100DC000040E0324EA6E036AEFCF01F003C002F0C1
:100DD000F6EF06F01E90020EB16FB26F8ADEFBEFE7
:100DE00006F01E80206A020EB16FD6D701C01FF038
:100DF0001F5201E1EFD705EF07F0B05302E19FD793
:100E000004D0B051020801E1ECD71200B1C06EFF6E
:100E1000B15303E0040E226E02D0020E226E16EFD2
:100E200007F01B6A1A6A24C0B1F0F0D782EF07F00E
:100E3000B1C0BEF0D7DE015243E0C06BB1C0BFF01D
:100E4000C26B080EC16F4EEC01F002C0BAF001C0D7
:100E5000B9F0040EB927000EBA23020EB925016EAF
:100E6000000EBA21036E01C0E9FF040E0324EA6EEE
:100E7000ECCFB8F0ED52EFCFB7F0B8C0EAFFB7C093
:100E8000E9FFB3C0E2FFB2C0E1FFB5C002F0B4C0F9
:100E900001F0015202E0022A02D0025206E0E6CF3F
:100EA000EEFF012EFCD7022EFAD7B1C0B9F0B5C0C3
:100EB000BBF0B4C0BAF0B6C0BCF0BBDE015002D08B
:100EC000000E016E12007B530EE0020EB16FB36B89
:100ED0003C0EB26FB56B7BC0B4F0020EB66FA8DFEC
:100EE000015201E07B6B1200EEDF87EF07F0B05399
:100EF0000AE11A2C03D008EC02F004D01A500208C0
:100F0000D8B48FD704D0B051020801E1EDD7120058
:100F10002130AE6FAE33AE331F0EAE17215241E11A
:100F2000040100513C0B0001AF6F430E0401001798
:100F30000001AF5134081EE104010451800B01E0AF
:100F4000046B0001BDD56D98233C05D0B16B030E39
:100F5000B26FCFDD0ED0B16B020EB26FCADD23507F
:100F6000FE0807E0B96BBB6B23C0BAF0040EBC6F80
:100F700060DE16D0AF51040813E1B06B3EDFB16BF9
:100F8000020EB26FB6DD2350FE080AE0233C01D00A
:100F900007D0B96BBB6B23C0BAF0010EBC6F49DE42
:100FA0001AD0215004080EE12368B06BA0DF233C67
:100FB00001D007D0B96BBB6B23C0BAF0020EBC6F77
:100FC00038DE09D021B404D0AEC0B0F016DF03D0B3
:100FD000AEC0B0F08CDF1EEF08F0A19A2252D8B458
:100FE00033D06852D8B430D068A403D069B400EFCD
:100FF00001F06DB229D068AA03D069BA18EF01F0E8
:1010000068A203D069B21FEF01F068A003D069B0F5
:10101000E6EF01F068A803D069B8FBEF01F068AC17
:1010200003D069BC00EF02F0AD6B68A608D069A6DA
:1010300006D06CCF21F002EC00F06AD701D004D0CA
:10104000AD51AD2B0308F1E22AEF00F04461746F5B
:10105000202564200C25332E3366200A20006D6A7B
:10106000696A080E6F6E94503009946E226A166A8F
:10107000F2BE168EF29ED0EC01F016BEF28E42EF5A
:1010800008F0EDD767EF08F0166AF2BE168EF29EF2
:10109000D0EC01F016BEF28E6D6A140E6F6E696AA6
:1010A0006D86010E226E58EF08F06DB601D0ECD7B8
:1010B000222C0BD06DBA09D0686A696AA08AC00E6A
:1010C000F212110E696E020E226E1200DAD7EDDFF7
:1010D00022500208FCE1BDEF0BF01B50016EC1EF86
:1010E0000BF0EA6A8C0EE96EEF500DE0060E016E11
:1010F000006A002EFED7012EFBD77B0E006E002E5D
:10110000FED7EF2EF3D712008E0E006E8CC001F0CA
:101110008BC002F0036A015209E102C001F0026AC9
:10112000080E005E015202E1006A08D0D89001BEAC
:1011300004D0023601360006F9D7019EE1EF0BF02C
:101140009851D8B471D0006E9C51D8B46DD000269F
:1011500004E3810E002668E204D07F0E005E64E3A3
:1011600063E099C0A0F09D51A01B998F9D8F9B516A
:101170009F03F4CFA2F09A519E03F4CF03F0F3CF74
:10118000A1F09F03F350A227F450A123000E0322E5
:101190009B519E03F350A227F450A123000E026A34
:1011A0000322022299519F03F350A127F4500322F6
:1011B000000E022299519E03F3500326F45002229E
:1011C000000E016A01229B519D03F350A127F450A8
:1011D0000322000E022201229A519D03F35003269E
:1011E000F4500222000E012299519D03F350022671
:1011F000F4500122002A01BE05D0A1370336023681
:1012000001360006000EA1AF0AD0032A02220122F5
:10121000015005E1025003E1035001E1002AA0BFA3
:10122000018EA0AF019E04D0006A016A026A036ABF
:1012300012008B51D8B4A5D0976F8F51D8B4A1D0DC
:10124000975F05E37F0E9727D8B09BD006D0810E1D
:10125000975FD8A096D0D8B494D097C000F0016A18
:10126000026A036A966B8CC095F0958F8DC094F0DE
:101270008EC093F0190E976F9251935F0DE2010E9D
:10128000945F0AE2955F08E2965F06E2962B952B43
:10129000942B9251932728D09151945F12E2010E22
:1012A000955F0FE2965F0DE2962B952B9151942757
:1012B0009251932719E3942B17E1952B15E1962B67
:1012C00013D090518009955F0EE2010E965F0BE2FC
:1012D000962B90518009952791519427E9E3952BFE
:1012E000E7E1962BE5D70380972F01D00BD0D8905C
:1012F0009337943795379637D890033602360136B0
:101300009837BAD798A106D0D8900132023203326A
:10131000983302D0000635E098BF1ED0D89093379E
:101320009437953796379251935F07E2010E945F99
:1013300004E2955F02E2965F1AE39151945F05E241
:10134000010E955F02E2965F12E390518009955F6E
:1013500003E2010E965F0BE3032A09E1022A07E18B
:10136000012A05E1002A0DE00132023203328CC06D
:1013700097F09051971B97AF02D0018E06D0019E37
:1013800004D0006A016A026A036A12009B91A0BA43
:101390009B81A09A7B513E0802E23E0E7B6F7B51FF
:1013A0007B2B036A3C0FE96E000E0320EA6E9AC0A5
:1013B000EFFF9BA101D0A08AE1EF09F099C09AF05C
:1013C000E5D7166AF2BE168EF29E7DDD16BEF28E4F
:1013D000F2EF09F03F0ED8807B5501E1FBD798C0B2
:1013E00099F0ECD712000900F6CF8CF0F7CF8DF012
:1013F000F5CF98F0EFDF8CC0F6FF8DC0F7FF8B2F95
:10140000F2D712009251016A915D03E291C000F09F
:101410000CD0006A080E936F913700369251005C31
:10142000D8B0006E0136932FF7D71200200E8CA98A
:10143000300E8D6F8BC000F08BAF08D0001E002ADD
:1014400000C08BF02D0E8D6F8C8F8C8101508BC066
:1014500091F0640E926FD6DF00C08BF0300E012445
:101460008E6F8BC091F00A0E926FCCDF300E00248D
:10147000906F300E01248F6F8DC000F0300E8E5DA6
:1014800004E08C838CBF8C8512D08DC08EF0200E32
:101490008D6F300E8F5D04E08C818CBF8C8307D004
:1014A000D8A48C8104E18EC08FF0200E8E6F8CB595
:1014B00005D08CB306D08CB107D009D08DC098F080
:1014C00089DF8EC098F086DF8FC098F083DF90C0F0
:1014D00098F080DF39EF0CF09851B608986F036AE6
:1014E00099C09CF0998FD89099339A339B330332EB
:1014F000023201320032982FF6D79CAF0BD0001E7B
:10150000011E021E031E002AD8B4012AD8B4022AE2
:10151000D8B4032AFAEF0AF0D8B203D0EA6AA00ED0
:10152000E96E006A016A026A036AA06BA16BA26B92
:10153000A36B9F519E119D119C112CE0200EA46F56
:10154000D890983799379A379B37A037A137A23769
:10155000A3379F51A35D08E19E51A25D05E19D5116
:10156000A15D02E19C51A05D0FE39C51A05F9D51E4
:10157000D8A09D3DA15F9E51D8A09E3DA25F9F51E6
:10158000D8A09F3DA35FD8800036013602360336CF
:10159000A42FD6D7A0C0EFFFA1C0ECFFA2C0ECFFE4
:1015A000A3C0ECFF1200E950906F8F51926F19E0C9
:1015B0008EC09BF08DC09AF08CC099F08BC098F0D3
:1015C0009F6B9E6B200E9D6F820E9C6FB9DD03C0DA
:1015D0008EF002C08DF001C08CF000C08BF0922F15
:1015E000E7D78EC09BF08DC09AF08CC099F08BC06D
:1015F00098F072D703C08EF002C08DF001C08CF05D
:1016000000C08BF08EAF0DD09007908B8B1F8C1F7E
:101610008D1F8E1F8B2BD8B48C2BD8B48D2BD8B4A8
:101620008E2B3B0E976F9A0E966FCA0E956F946B2A
:101630000A0E926F8F51D8B4902BD882EA6A8B0E23
:10164000E96E8EC09BF08DC09AF08CC099F08BC073
:1016500098F097C09FF096C09EF095C09DF094C002
:101660009CF05ADF015000520FE18F29925D0CE08F
:1016700090510CE00F0B925D01E037E290BF35D046
:1016800090BD04D0200E2DD0200E901790AB0CD022
:10169000909B8F51D8A490070050906F2D0E986F9B
:1016A00099DE9051006E906B8F51925D0AE100506F
:1016B000906F2E0E986F8EDE9051006E200E901758
:1016C000000E300E90AB0DD0909B8F51D8A4900798
:1016D0000050906F2D0E986F7DDE9051006E906BD4
:1016E000300E002600C098F075DED89297C09BF0AF
:1016F00096C09AF095C099F094C098F09F6B9E6B3D
:101700009D6B0A0E9C6F08DF03C097F002C096F035
:1017100001C095F000C094F0922F8FD74CEF0CF0E1
:10172000F86AD09E078EB896400EAF6EA60EAC6ECD
:10173000900EAB6E836BC150C00B0F09C16E070ECC
:10174000B46E176A040E186E0E0E196E7F6B806BE6
:10175000C150C00B0609C16EC050C00B0709C06E56
:10176000C09EC28094928B82166AF2BE168EF29E42
:1017700098EC01F016BEF28EA9D47CA1FED795DCC0
:10178000ACD40152D8B498D08A6B8A510808D8A03A
:101790008CD08A35006E0036FC0E0016C250C30B8A
:1017A0000010C26E020E8C6F9CDCC282C2B2FED7E9
:1017B000C3CF84F0C4CF85F085C08CF084C08BF09B
:1017C000A3D403C089F002C088F001C087F000C034
:1017D00086F089C09BF088C09AF087C099F086C0D7
:1017E00098F0330E9F6F9E6F530E9D6F800E9C6F0F
:1017F000A7DC03C089F002C088F001C087F000C0F8
:1018000086F089C08EF088C08DF087C08CF086C0CD
:101810008BF0926B916B906B850E8F6F0ADD03C01E
:1018200089F002C088F001C087F000C086F089C04E
:101830008EF088C08DF087C08CF086C08BF0926BE4
:10184000916B906B890E8F6FF4DC03C089F002C03E
:1018500088F001C087F000C086F04C0EF66E100EC6
:10186000F76E050E8B6FBFDD8AC08BF0180E8C6F84
:10187000DDD5200E986FAEDD0C0E986FABDD890EB6
:10188000E96E89C08EF088C08DF087C08CF086C06C
:101890008BF0030E8F6F87D65A0EF66E100EF76E12
:1018A000030E8B6FA0DD8A2B70D7140E8B6FFA0E90
:0C18B0008C6F17DC8B2FFBD762D7030076
:020000040030CA
:0E00000024CE3E1E0087A1000FC00FE00F406F
:00000001FF
;PIC18F4550
;CRC=B76F  CREATED="20-may.-18 20:51"
